{
  "contractName": "RecipeRegistry",
  "abi": [
    {
      "constant": true,
      "inputs": [
        {
          "name": "",
          "type": "address"
        },
        {
          "name": "",
          "type": "uint256"
        }
      ],
      "name": "ownerToRecipe",
      "outputs": [
        {
          "name": "",
          "type": "uint256"
        }
      ],
      "payable": false,
      "stateMutability": "view",
      "type": "function"
    },
    {
      "constant": true,
      "inputs": [
        {
          "name": "",
          "type": "uint256"
        }
      ],
      "name": "recipes",
      "outputs": [
        {
          "name": "owner",
          "type": "address"
        },
        {
          "name": "displayName",
          "type": "string"
        },
        {
          "name": "imageUrl",
          "type": "string"
        }
      ],
      "payable": false,
      "stateMutability": "view",
      "type": "function"
    },
    {
      "constant": true,
      "inputs": [
        {
          "name": "",
          "type": "uint256"
        }
      ],
      "name": "recipeToOwner",
      "outputs": [
        {
          "name": "",
          "type": "address"
        }
      ],
      "payable": false,
      "stateMutability": "view",
      "type": "function"
    },
    {
      "anonymous": false,
      "inputs": [
        {
          "indexed": false,
          "name": "id",
          "type": "uint256"
        },
        {
          "indexed": false,
          "name": "owner",
          "type": "address"
        },
        {
          "indexed": false,
          "name": "displayName",
          "type": "string"
        },
        {
          "indexed": false,
          "name": "imageUrl",
          "type": "string"
        },
        {
          "indexed": false,
          "name": "ingredients",
          "type": "string[]"
        },
        {
          "indexed": false,
          "name": "steps",
          "type": "string[]"
        }
      ],
      "name": "NewRecipe",
      "type": "event"
    },
    {
      "anonymous": false,
      "inputs": [
        {
          "indexed": false,
          "name": "id",
          "type": "uint256"
        },
        {
          "indexed": false,
          "name": "owner",
          "type": "address"
        },
        {
          "indexed": false,
          "name": "displayName",
          "type": "string"
        },
        {
          "indexed": false,
          "name": "imageUrl",
          "type": "string"
        }
      ],
      "name": "UpdatedRecipe",
      "type": "event"
    },
    {
      "constant": false,
      "inputs": [
        {
          "name": "_displayName",
          "type": "string"
        },
        {
          "name": "_imageUrl",
          "type": "string"
        },
        {
          "name": "_ingredients",
          "type": "string[]"
        },
        {
          "name": "_steps",
          "type": "string[]"
        }
      ],
      "name": "createRecipe",
      "outputs": [],
      "payable": false,
      "stateMutability": "nonpayable",
      "type": "function"
    },
    {
      "constant": true,
      "inputs": [],
      "name": "getRecipeIds",
      "outputs": [
        {
          "name": "",
          "type": "uint256[]"
        }
      ],
      "payable": false,
      "stateMutability": "view",
      "type": "function"
    },
    {
      "constant": true,
      "inputs": [
        {
          "name": "id",
          "type": "uint256"
        }
      ],
      "name": "getRecipe",
      "outputs": [
        {
          "name": "",
          "type": "string"
        },
        {
          "name": "",
          "type": "string"
        },
        {
          "name": "",
          "type": "string[]"
        },
        {
          "name": "",
          "type": "string[]"
        }
      ],
      "payable": false,
      "stateMutability": "view",
      "type": "function"
    },
    {
      "constant": false,
      "inputs": [
        {
          "name": "id",
          "type": "uint256"
        },
        {
          "name": "_displayName",
          "type": "string"
        }
      ],
      "name": "updateRecipeName",
      "outputs": [],
      "payable": false,
      "stateMutability": "nonpayable",
      "type": "function"
    },
    {
      "constant": false,
      "inputs": [
        {
          "name": "id",
          "type": "uint256"
        },
        {
          "name": "_imageUrl",
          "type": "string"
        }
      ],
      "name": "updateRecipeImage",
      "outputs": [],
      "payable": false,
      "stateMutability": "nonpayable",
      "type": "function"
    }
  ],
  "bytecode": "0x608060405234801561001057600080fd5b50611849806100206000396000f30060806040526004361061008e576000357c0100000000000000000000000000000000000000000000000000000000900463ffffffff1680633044580214610093578063443c227c146100d057806351fd66d51461010f5780636434c934146101385780639f51c21e14610175578063d122b1a11461019e578063dc0960fa146101c9578063f8d12a41146101f2575b600080fd5b34801561009f57600080fd5b506100ba60048036036100b5919081019061107c565b610232565b6040516100c7919061150b565b60405180910390f35b3480156100dc57600080fd5b506100f760048036036100f2919081019061117b565b610262565b60405161010693929190611423565b60405180910390f35b34801561011b57600080fd5b50610136600480360361013191908101906110b8565b6103eb565b005b34801561014457600080fd5b5061015f600480360361015a919081019061117b565b61061d565b60405161016c9190611408565b60405180910390f35b34801561018157600080fd5b5061019c600480360361019791908101906111a4565b610650565b005b3480156101aa57600080fd5b506101b361075f565b6040516101c09190611468565b60405180910390f35b3480156101d557600080fd5b506101f060048036036101eb91908101906111a4565b6107f4565b005b3480156101fe57600080fd5b506102196004803603610214919081019061117b565b610903565b604051610229949392919061148a565b60405180910390f35b60026020528160005260406000208181548110151561024d57fe5b90600052602060002001600091509150505481565b60008181548110151561027157fe5b90600052602060002090600502016000915090508060000160009054906101000a900473ffffffffffffffffffffffffffffffffffffffff1690806001018054600181600116156101000203166002900480601f0160208091040260200160405190810160405280929190818152602001828054600181600116156101000203166002900480156103435780601f1061031857610100808354040283529160200191610343565b820191906000526020600020905b81548152906001019060200180831161032657829003601f168201915b505050505090806002018054600181600116156101000203166002900480601f0160208091040260200160405190810160405280929190818152602001828054600181600116156101000203166002900480156103e15780601f106103b6576101008083540402835291602001916103e1565b820191906000526020600020905b8154815290600101906020018083116103c457829003601f168201915b5050505050905083565b60006001600060a0604051908101604052803373ffffffffffffffffffffffffffffffffffffffff168152602001888152602001878152602001868152602001858152509080600181540180825580915050906001820390600052602060002090600502016000909192909190915060008201518160000160006101000a81548173ffffffffffffffffffffffffffffffffffffffff021916908373ffffffffffffffffffffffffffffffffffffffff16021790555060208201518160010190805190602001906104bd929190610d39565b5060408201518160020190805190602001906104da929190610d39565b5060608201518160030190805190602001906104f7929190610db9565b506080820151816004019080519060200190610514929190610db9565b505050039050336001600083815260200190815260200160002060006101000a81548173ffffffffffffffffffffffffffffffffffffffff021916908373ffffffffffffffffffffffffffffffffffffffff160217905550600260003373ffffffffffffffffffffffffffffffffffffffff1673ffffffffffffffffffffffffffffffffffffffff1681526020019081526020016000208190806001815401808255809150509060018203906000526020600020016000909192909190915055507fac9d844e97976951cab6bdff6c8922180ac4614305a3deace6eff8fe2d32056581338787878760405161060e96959493929190611526565b60405180910390a15050505050565b60016020528060005260406000206000915054906101000a900473ffffffffffffffffffffffffffffffffffffffff1681565b60008281548110151561065f57fe5b906000526020600020906005020160000160009054906101000a900473ffffffffffffffffffffffffffffffffffffffff1673ffffffffffffffffffffffffffffffffffffffff163373ffffffffffffffffffffffffffffffffffffffff161415156106ca57600080fd5b806000838154811015156106da57fe5b906000526020600020906005020160020190805190602001906106fe929190610e19565b507f35a005ca6307755f82cf825331cc869633bcd4f604bdf5580d86ddc009ad9b74823360008581548110151561073157fe5b90600052602060002090600502016001018460405161075394939291906115f6565b60405180910390a15050565b6060600260003373ffffffffffffffffffffffffffffffffffffffff1673ffffffffffffffffffffffffffffffffffffffff1681526020019081526020016000208054806020026020016040519081016040528092919081815260200182805480156107ea57602002820191906000526020600020905b8154815260200190600101908083116107d6575b5050505050905090565b60008281548110151561080357fe5b906000526020600020906005020160000160009054906101000a900473ffffffffffffffffffffffffffffffffffffffff1673ffffffffffffffffffffffffffffffffffffffff163373ffffffffffffffffffffffffffffffffffffffff1614151561086e57600080fd5b8060008381548110151561087e57fe5b906000526020600020906005020160010190805190602001906108a2929190610e19565b507f35a005ca6307755f82cf825331cc869633bcd4f604bdf5580d86ddc009ad9b748233836000868154811015156108d657fe5b90600052602060002090600502016002016040516108f794939291906115a3565b60405180910390a15050565b6060806060803373ffffffffffffffffffffffffffffffffffffffff166001600087815260200190815260200160002060009054906101000a900473ffffffffffffffffffffffffffffffffffffffff1673ffffffffffffffffffffffffffffffffffffffff161415156109ac576040517f08c379a00000000000000000000000000000000000000000000000000000000081526004016109a3906114eb565b60405180910390fd5b6000858154811015156109bb57fe5b90600052602060002090600502016001016000868154811015156109db57fe5b90600052602060002090600502016002016000878154811015156109fb57fe5b9060005260206000209060050201600301600088815481101515610a1b57fe5b9060005260206000209060050201600401838054600181600116156101000203166002900480601f016020809104026020016040519081016040528092919081815260200182805460018160011615610100020316600290048015610ac15780601f10610a9657610100808354040283529160200191610ac1565b820191906000526020600020905b815481529060010190602001808311610aa457829003601f168201915b50505050509350828054600181600116156101000203166002900480601f016020809104026020016040519081016040528092919081815260200182805460018160011615610100020316600290048015610b5d5780601f10610b3257610100808354040283529160200191610b5d565b820191906000526020600020905b815481529060010190602001808311610b4057829003601f168201915b5050505050925081805480602002602001604051908101604052809291908181526020016000905b82821015610c41578382906000526020600020018054600181600116156101000203166002900480601f016020809104026020016040519081016040528092919081815260200182805460018160011615610100020316600290048015610c2d5780601f10610c0257610100808354040283529160200191610c2d565b820191906000526020600020905b815481529060010190602001808311610c1057829003601f168201915b505050505081526020019060010190610b85565b50505050915080805480602002602001604051908101604052809291908181526020016000905b82821015610d24578382906000526020600020018054600181600116156101000203166002900480601f016020809104026020016040519081016040528092919081815260200182805460018160011615610100020316600290048015610d105780601f10610ce557610100808354040283529160200191610d10565b820191906000526020600020905b815481529060010190602001808311610cf357829003601f168201915b505050505081526020019060010190610c68565b50505050905093509350935093509193509193565b828054600181600116156101000203166002900490600052602060002090601f016020900481019282601f10610d7a57805160ff1916838001178555610da8565b82800160010185558215610da8579182015b82811115610da7578251825591602001919060010190610d8c565b5b509050610db59190610e99565b5090565b828054828255906000526020600020908101928215610e08579160200282015b82811115610e07578251829080519060200190610df7929190610d39565b5091602001919060010190610dd9565b5b509050610e159190610ebe565b5090565b828054600181600116156101000203166002900490600052602060002090601f016020900481019282601f10610e5a57805160ff1916838001178555610e88565b82800160010185558215610e88579182015b82811115610e87578251825591602001919060010190610e6c565b5b509050610e959190610e99565b5090565b610ebb91905b80821115610eb7576000816000905550600101610e9f565b5090565b90565b610ee791905b80821115610ee35760008181610eda9190610eea565b50600101610ec4565b5090565b90565b50805460018160011615610100020316600290046000825580601f10610f105750610f2f565b601f016020900490600052602060002090810190610f2e9190610e99565b5b50565b6000610f3e8235611792565b905092915050565b600082601f8301121515610f5957600080fd5b8135610f6c610f6782611676565b611649565b9150818183526020840193506020810190508360005b83811015610fb25781358601610f988882610fbc565b845260208401935060208301925050600181019050610f82565b5050505092915050565b600082601f8301121515610fcf57600080fd5b8135610fe2610fdd8261169e565b611649565b91508082526020830160208301858383011115610ffe57600080fd5b6110098382846117bc565b50505092915050565b600082601f830112151561102557600080fd5b8135611038611033826116ca565b611649565b9150808252602083016020830185838301111561105457600080fd5b61105f8382846117bc565b50505092915050565b600061107482356117b2565b905092915050565b6000806040838503121561108f57600080fd5b600061109d85828601610f32565b92505060206110ae85828601611068565b9150509250929050565b600080600080608085870312156110ce57600080fd5b600085013567ffffffffffffffff8111156110e857600080fd5b6110f487828801611012565b945050602085013567ffffffffffffffff81111561111157600080fd5b61111d87828801611012565b935050604085013567ffffffffffffffff81111561113a57600080fd5b61114687828801610f46565b925050606085013567ffffffffffffffff81111561116357600080fd5b61116f87828801610f46565b91505092959194509250565b60006020828403121561118d57600080fd5b600061119b84828501611068565b91505092915050565b600080604083850312156111b757600080fd5b60006111c585828601611068565b925050602083013567ffffffffffffffff8111156111e257600080fd5b6111ee85828601611012565b9150509250929050565b61120181611768565b82525050565b600061121282611722565b8084526020840193508360208202850161122b856116f6565b60005b84811015611264578383038852611246838351611306565b92506112518261174e565b915060208801975060018101905061122e565b508196508694505050505092915050565b60006112808261172d565b80845260208401935061129283611703565b60005b828110156112c4576112a88683516113f9565b6112b18261175b565b9150602086019550600181019050611295565b50849250505092915050565b60006112db82611743565b8084526112ef8160208601602086016117cb565b6112f8816117fe565b602085010191505092915050565b600061131182611738565b8084526113258160208601602086016117cb565b61132e816117fe565b602085010191505092915050565b6000815460018116600081146113595760018114611379576113ba565b607f600283041680865260ff1983166020870152604086019350506113ba565b6002820480865260208601955061138f85611710565b60005b828110156113b157815481890152600182019150602081019050611392565b80880195505050505b505092915050565b6000602082527f52656369706520616e64206f776e657220646f6573206e6f74206d617463682e6020830152604082019050919050565b61140281611788565b82525050565b600060208201905061141d60008301846111f8565b92915050565b600060608201905061143860008301866111f8565b818103602083015261144a8185611306565b9050818103604083015261145e8184611306565b9050949350505050565b600060208201905081810360008301526114828184611275565b905092915050565b600060808201905081810360008301526114a481876112d0565b905081810360208301526114b881866112d0565b905081810360408301526114cc8185611207565b905081810360608301526114e08184611207565b905095945050505050565b60006020820190508181036000830152611504816113c2565b9050919050565b600060208201905061152060008301846113f9565b92915050565b600060c08201905061153b60008301896113f9565b61154860208301886111f8565b818103604083015261155a81876112d0565b9050818103606083015261156e81866112d0565b905081810360808301526115828185611207565b905081810360a08301526115968184611207565b9050979650505050505050565b60006080820190506115b860008301876113f9565b6115c560208301866111f8565b81810360408301526115d781856112d0565b905081810360608301526115eb818461133c565b905095945050505050565b600060808201905061160b60008301876113f9565b61161860208301866111f8565b818103604083015261162a818561133c565b9050818103606083015261163e81846112d0565b905095945050505050565b6000604051905081810181811067ffffffffffffffff8211171561166c57600080fd5b8060405250919050565b600067ffffffffffffffff82111561168d57600080fd5b602082029050602081019050919050565b600067ffffffffffffffff8211156116b557600080fd5b601f19601f8301169050602081019050919050565b600067ffffffffffffffff8211156116e157600080fd5b601f19601f8301169050602081019050919050565b6000602082019050919050565b6000602082019050919050565b60008160005260206000209050919050565b600081519050919050565b600081519050919050565b600081519050919050565b600081519050919050565b6000602082019050919050565b6000602082019050919050565b600073ffffffffffffffffffffffffffffffffffffffff82169050919050565b6000819050919050565b600073ffffffffffffffffffffffffffffffffffffffff82169050919050565b6000819050919050565b82818337600083830152505050565b60005b838110156117e95780820151818401526020810190506117ce565b838111156117f8576000848401525b50505050565b6000601f19601f83011690509190505600a265627a7a72305820cca317ac829f08485ee90223bd986719b84766f487b882c329f065582aeb13156c6578706572696d656e74616cf50037",
  "source": "pragma solidity ^0.4.0;\npragma experimental ABIEncoderV2;\n\ncontract RecipeRegistry {\n  event NewRecipe(uint id, address owner, string displayName, string imageUrl, string[] ingredients, string[] steps);\n  event UpdatedRecipe(uint id, address owner, string displayName, string imageUrl);\n\n  struct Recipe {\n    address owner;\n    string displayName;\n    string imageUrl;\n    string[] ingredients;\n    string[] steps;\n  }\n\n  Recipe[] public recipes;\n\n  mapping (uint => address) public recipeToOwner;\n  mapping (address => uint[]) public ownerToRecipe;\n\n  function createRecipe(string _displayName, string _imageUrl, string[] _ingredients, string[] _steps) public {\n    uint id = recipes.push(Recipe(msg.sender, _displayName, _imageUrl, _ingredients, _steps)) - 1;\n\n    recipeToOwner[id] = msg.sender;\n    ownerToRecipe[msg.sender].push(id);\n\n    emit NewRecipe(id, msg.sender, _displayName, _imageUrl, _ingredients, _steps);\n  }\n\n  function getRecipeIds() public view returns (uint[]) {\n    return ownerToRecipe[msg.sender];\n  }\n\n  function getRecipe(uint id) public view returns (string, string, string[], string[]) {\n    require(recipeToOwner[id] == msg.sender, \"Recipe and owner does not match.\");\n    return (recipes[id].displayName, recipes[id].imageUrl, recipes[id].ingredients, recipes[id].steps);\n  }\n\n  function updateRecipeName(uint id, string _displayName) public {\n    require(msg.sender == recipes[id].owner);\n\n    recipes[id].displayName = _displayName;\n    emit UpdatedRecipe(id, msg.sender, _displayName, recipes[id].imageUrl);\n  }\n\n  function updateRecipeImage(uint id, string _imageUrl) public {\n    require(msg.sender == recipes[id].owner);\n\n    recipes[id].imageUrl =  _imageUrl;\n    emit UpdatedRecipe(id, msg.sender, recipes[id].displayName, _imageUrl);\n  }\n\n}\n",
  "sourcePath": "/home/bitnami/thegraph/my-subgraph/my-subgraph/contracts/Recipe.sol",
  "compiler": {
    "name": "solc",
    "version": "0.4.25+commit.59dbf8f1.Emscripten.clang"
  },
  "schemaVersion": "3.1.0",
  "updatedAt": "2020-09-18T02:05:04.965Z",
  "networkType": "ethereum",
  "devdoc": {
    "methods": {}
  },
  "userdoc": {
    "methods": {}
  }
}