{
  "contractName": "SanctionRegistry",
  "abi": [
    {
      "constant": true,
      "inputs": [
        {
          "name": "",
          "type": "uint256"
        }
      ],
      "name": "sanctionToOwner",
      "outputs": [
        {
          "name": "",
          "type": "address"
        }
      ],
      "payable": false,
      "stateMutability": "view",
      "type": "function"
    },
    {
      "constant": true,
      "inputs": [
        {
          "name": "",
          "type": "address"
        },
        {
          "name": "",
          "type": "uint256"
        }
      ],
      "name": "ownerToSanction",
      "outputs": [
        {
          "name": "",
          "type": "uint256"
        }
      ],
      "payable": false,
      "stateMutability": "view",
      "type": "function"
    },
    {
      "constant": true,
      "inputs": [
        {
          "name": "",
          "type": "uint256"
        }
      ],
      "name": "sanctions",
      "outputs": [
        {
          "name": "owner",
          "type": "address"
        },
        {
          "name": "referenceNum",
          "type": "string"
        },
        {
          "name": "dataId",
          "type": "string"
        },
        {
          "name": "versionNum",
          "type": "string"
        },
        {
          "name": "unListType",
          "type": "string"
        },
        {
          "name": "listType",
          "type": "string"
        },
        {
          "name": "listedOn",
          "type": "string"
        },
        {
          "name": "otherInformation",
          "type": "string"
        },
        {
          "name": "nationality",
          "type": "string"
        }
      ],
      "payable": false,
      "stateMutability": "view",
      "type": "function"
    },
    {
      "anonymous": false,
      "inputs": [
        {
          "indexed": false,
          "name": "id",
          "type": "uint256"
        },
        {
          "indexed": false,
          "name": "owner",
          "type": "address"
        },
        {
          "components": [
            {
              "name": "owner",
              "type": "address"
            },
            {
              "name": "referenceNum",
              "type": "string"
            },
            {
              "name": "dataId",
              "type": "string"
            },
            {
              "name": "versionNum",
              "type": "string"
            },
            {
              "name": "unListType",
              "type": "string"
            },
            {
              "name": "listType",
              "type": "string"
            },
            {
              "name": "listedOn",
              "type": "string"
            },
            {
              "name": "otherInformation",
              "type": "string"
            },
            {
              "name": "nationality",
              "type": "string"
            },
            {
              "name": "name",
              "type": "string[]"
            },
            {
              "name": "designation",
              "type": "string[]"
            },
            {
              "name": "passportNum",
              "type": "string[]"
            },
            {
              "name": "nationalIdentificationNo",
              "type": "string[]"
            },
            {
              "name": "dob",
              "type": "string[]"
            },
            {
              "name": "pob",
              "type": "string[]"
            },
            {
              "name": "aDdress",
              "type": "string[]"
            },
            {
              "name": "goodQualityAka",
              "type": "string[]"
            },
            {
              "name": "lowQualityAka",
              "type": "string[]"
            }
          ],
          "indexed": false,
          "name": "sanction",
          "type": "tuple"
        }
      ],
      "name": "NewSanction",
      "type": "event"
    },
    {
      "anonymous": false,
      "inputs": [
        {
          "indexed": false,
          "name": "id",
          "type": "uint256"
        },
        {
          "indexed": false,
          "name": "owner",
          "type": "address"
        },
        {
          "indexed": false,
          "name": "referenceNum",
          "type": "string"
        }
      ],
      "name": "UpdatedSanction",
      "type": "event"
    },
    {
      "constant": false,
      "inputs": [
        {
          "components": [
            {
              "name": "owner",
              "type": "address"
            },
            {
              "name": "referenceNum",
              "type": "string"
            },
            {
              "name": "dataId",
              "type": "string"
            },
            {
              "name": "versionNum",
              "type": "string"
            },
            {
              "name": "unListType",
              "type": "string"
            },
            {
              "name": "listType",
              "type": "string"
            },
            {
              "name": "listedOn",
              "type": "string"
            },
            {
              "name": "otherInformation",
              "type": "string"
            },
            {
              "name": "nationality",
              "type": "string"
            },
            {
              "name": "name",
              "type": "string[]"
            },
            {
              "name": "designation",
              "type": "string[]"
            },
            {
              "name": "passportNum",
              "type": "string[]"
            },
            {
              "name": "nationalIdentificationNo",
              "type": "string[]"
            },
            {
              "name": "dob",
              "type": "string[]"
            },
            {
              "name": "pob",
              "type": "string[]"
            },
            {
              "name": "aDdress",
              "type": "string[]"
            },
            {
              "name": "goodQualityAka",
              "type": "string[]"
            },
            {
              "name": "lowQualityAka",
              "type": "string[]"
            }
          ],
          "name": "sanction",
          "type": "tuple"
        }
      ],
      "name": "createSanction",
      "outputs": [],
      "payable": false,
      "stateMutability": "nonpayable",
      "type": "function"
    },
    {
      "constant": true,
      "inputs": [],
      "name": "getSanctionIds",
      "outputs": [
        {
          "name": "",
          "type": "uint256[]"
        }
      ],
      "payable": false,
      "stateMutability": "view",
      "type": "function"
    },
    {
      "constant": true,
      "inputs": [
        {
          "name": "id",
          "type": "uint256"
        }
      ],
      "name": "getSanction",
      "outputs": [
        {
          "components": [
            {
              "name": "owner",
              "type": "address"
            },
            {
              "name": "referenceNum",
              "type": "string"
            },
            {
              "name": "dataId",
              "type": "string"
            },
            {
              "name": "versionNum",
              "type": "string"
            },
            {
              "name": "unListType",
              "type": "string"
            },
            {
              "name": "listType",
              "type": "string"
            },
            {
              "name": "listedOn",
              "type": "string"
            },
            {
              "name": "otherInformation",
              "type": "string"
            },
            {
              "name": "nationality",
              "type": "string"
            },
            {
              "name": "name",
              "type": "string[]"
            },
            {
              "name": "designation",
              "type": "string[]"
            },
            {
              "name": "passportNum",
              "type": "string[]"
            },
            {
              "name": "nationalIdentificationNo",
              "type": "string[]"
            },
            {
              "name": "dob",
              "type": "string[]"
            },
            {
              "name": "pob",
              "type": "string[]"
            },
            {
              "name": "aDdress",
              "type": "string[]"
            },
            {
              "name": "goodQualityAka",
              "type": "string[]"
            },
            {
              "name": "lowQualityAka",
              "type": "string[]"
            }
          ],
          "name": "sanction",
          "type": "tuple"
        }
      ],
      "payable": false,
      "stateMutability": "view",
      "type": "function"
    },
    {
      "constant": false,
      "inputs": [
        {
          "name": "id",
          "type": "uint256"
        },
        {
          "name": "_referenceNum",
          "type": "string"
        }
      ],
      "name": "updateReferenceNum",
      "outputs": [],
      "payable": false,
      "stateMutability": "nonpayable",
      "type": "function"
    }
  ],
  "bytecode": "0x608060405234801561001057600080fd5b50612a8a806100206000396000f300608060405260043610610083576000357c0100000000000000000000000000000000000000000000000000000000900463ffffffff1680630ae5dfa81461008857806329d21375146100b157806349c499cf146100ee57806369a8d93e1461012b5780637a3a034614610154578063cdc5caa114610191578063e4081833146101d6575b600080fd5b34801561009457600080fd5b506100af60048036036100aa9190810190612261565b610201565b005b3480156100bd57600080fd5b506100d860048036036100d391908101906122a2565b610570565b6040516100e591906126c1565b60405180910390f35b3480156100fa57600080fd5b5061011560048036036101109190810190612225565b6105a3565b6040516101229190612805565b60405180910390f35b34801561013757600080fd5b50610152600480360361014d91908101906122cb565b6105d3565b005b34801561016057600080fd5b5061017b600480360361017691908101906122a2565b6106c1565b60405161018891906127e3565b60405180910390f35b34801561019d57600080fd5b506101b860048036036101b391908101906122a2565b611534565b6040516101cd999897969594939291906126dc565b60405180910390f35b3480156101e257600080fd5b506101eb611a71565b6040516101f891906127a1565b60405180910390f35b600060016000839080600181540180825580915050906001820390600052602060002090601202016000909192909190915060008201518160000160006101000a81548173ffffffffffffffffffffffffffffffffffffffff021916908373ffffffffffffffffffffffffffffffffffffffff1602179055506020820151816001019080519060200190610296929190611b06565b5060408201518160020190805190602001906102b3929190611b06565b5060608201518160030190805190602001906102d0929190611b06565b5060808201518160040190805190602001906102ed929190611b06565b5060a082015181600501908051906020019061030a929190611b06565b5060c0820151816006019080519060200190610327929190611b06565b5060e0820151816007019080519060200190610344929190611b06565b50610100820151816008019080519060200190610362929190611b06565b50610120820151816009019080519060200190610380929190611b86565b5061014082015181600a01908051906020019061039e929190611b86565b5061016082015181600b0190805190602001906103bc929190611b86565b5061018082015181600c0190805190602001906103da929190611b86565b506101a082015181600d0190805190602001906103f8929190611b86565b506101c082015181600e019080519060200190610416929190611b86565b506101e082015181600f019080519060200190610434929190611b86565b50610200820151816010019080519060200190610452929190611b86565b50610220820151816011019080519060200190610470929190611b86565b505050039050336001600083815260200190815260200160002060006101000a81548173ffffffffffffffffffffffffffffffffffffffff021916908373ffffffffffffffffffffffffffffffffffffffff160217905550600260003373ffffffffffffffffffffffffffffffffffffffff1673ffffffffffffffffffffffffffffffffffffffff1681526020019081526020016000208190806001815401808255809150509060018203906000526020600020016000909192909190915055507f90aa2b39810a2fd53301a531ed9770305e342b197e8736184a48872a037d0e198133846040516105649392919061285e565b60405180910390a15050565b60016020528060005260406000206000915054906101000a900473ffffffffffffffffffffffffffffffffffffffff1681565b6002602052816000526040600020818154811015156105be57fe5b90600052602060002001600091509150505481565b6000828154811015156105e257fe5b906000526020600020906012020160000160009054906101000a900473ffffffffffffffffffffffffffffffffffffffff1673ffffffffffffffffffffffffffffffffffffffff163373ffffffffffffffffffffffffffffffffffffffff1614151561064d57600080fd5b8060008381548110151561065d57fe5b90600052602060002090601202016001019080519060200190610681929190611be6565b507f18608c3c9e3ca705013c18029b28d06d4ee4de54e72cb649c35bff5cbda6274a8233836040516106b593929190612820565b60405180910390a15050565b6106c9611c66565b3373ffffffffffffffffffffffffffffffffffffffff166001600084815260200190815260200160002060009054906101000a900473ffffffffffffffffffffffffffffffffffffffff1673ffffffffffffffffffffffffffffffffffffffff1614151561076c576040517f08c379a0000000000000000000000000000000000000000000000000000000008152600401610763906127c3565b60405180910390fd5b60008281548110151561077b57fe5b906000526020600020906012020161024060405190810160405290816000820160009054906101000a900473ffffffffffffffffffffffffffffffffffffffff1673ffffffffffffffffffffffffffffffffffffffff1673ffffffffffffffffffffffffffffffffffffffff168152602001600182018054600181600116156101000203166002900480601f0160208091040260200160405190810160405280929190818152602001828054600181600116156101000203166002900480156108855780601f1061085a57610100808354040283529160200191610885565b820191906000526020600020905b81548152906001019060200180831161086857829003601f168201915b50505050508152602001600282018054600181600116156101000203166002900480601f0160208091040260200160405190810160405280929190818152602001828054600181600116156101000203166002900480156109275780601f106108fc57610100808354040283529160200191610927565b820191906000526020600020905b81548152906001019060200180831161090a57829003601f168201915b50505050508152602001600382018054600181600116156101000203166002900480601f0160208091040260200160405190810160405280929190818152602001828054600181600116156101000203166002900480156109c95780601f1061099e576101008083540402835291602001916109c9565b820191906000526020600020905b8154815290600101906020018083116109ac57829003601f168201915b50505050508152602001600482018054600181600116156101000203166002900480601f016020809104026020016040519081016040528092919081815260200182805460018160011615610100020316600290048015610a6b5780601f10610a4057610100808354040283529160200191610a6b565b820191906000526020600020905b815481529060010190602001808311610a4e57829003601f168201915b50505050508152602001600582018054600181600116156101000203166002900480601f016020809104026020016040519081016040528092919081815260200182805460018160011615610100020316600290048015610b0d5780601f10610ae257610100808354040283529160200191610b0d565b820191906000526020600020905b815481529060010190602001808311610af057829003601f168201915b50505050508152602001600682018054600181600116156101000203166002900480601f016020809104026020016040519081016040528092919081815260200182805460018160011615610100020316600290048015610baf5780601f10610b8457610100808354040283529160200191610baf565b820191906000526020600020905b815481529060010190602001808311610b9257829003601f168201915b50505050508152602001600782018054600181600116156101000203166002900480601f016020809104026020016040519081016040528092919081815260200182805460018160011615610100020316600290048015610c515780601f10610c2657610100808354040283529160200191610c51565b820191906000526020600020905b815481529060010190602001808311610c3457829003601f168201915b50505050508152602001600882018054600181600116156101000203166002900480601f016020809104026020016040519081016040528092919081815260200182805460018160011615610100020316600290048015610cf35780601f10610cc857610100808354040283529160200191610cf3565b820191906000526020600020905b815481529060010190602001808311610cd657829003601f168201915b5050505050815260200160098201805480602002602001604051908101604052809291908181526020016000905b82821015610ddd578382906000526020600020018054600181600116156101000203166002900480601f016020809104026020016040519081016040528092919081815260200182805460018160011615610100020316600290048015610dc95780601f10610d9e57610100808354040283529160200191610dc9565b820191906000526020600020905b815481529060010190602001808311610dac57829003601f168201915b505050505081526020019060010190610d21565b505050508152602001600a8201805480602002602001604051908101604052809291908181526020016000905b82821015610ec6578382906000526020600020018054600181600116156101000203166002900480601f016020809104026020016040519081016040528092919081815260200182805460018160011615610100020316600290048015610eb25780601f10610e8757610100808354040283529160200191610eb2565b820191906000526020600020905b815481529060010190602001808311610e9557829003601f168201915b505050505081526020019060010190610e0a565b505050508152602001600b8201805480602002602001604051908101604052809291908181526020016000905b82821015610faf578382906000526020600020018054600181600116156101000203166002900480601f016020809104026020016040519081016040528092919081815260200182805460018160011615610100020316600290048015610f9b5780601f10610f7057610100808354040283529160200191610f9b565b820191906000526020600020905b815481529060010190602001808311610f7e57829003601f168201915b505050505081526020019060010190610ef3565b505050508152602001600c8201805480602002602001604051908101604052809291908181526020016000905b82821015611098578382906000526020600020018054600181600116156101000203166002900480601f0160208091040260200160405190810160405280929190818152602001828054600181600116156101000203166002900480156110845780601f1061105957610100808354040283529160200191611084565b820191906000526020600020905b81548152906001019060200180831161106757829003601f168201915b505050505081526020019060010190610fdc565b505050508152602001600d8201805480602002602001604051908101604052809291908181526020016000905b82821015611181578382906000526020600020018054600181600116156101000203166002900480601f01602080910402602001604051908101604052809291908181526020018280546001816001161561010002031660029004801561116d5780601f106111425761010080835404028352916020019161116d565b820191906000526020600020905b81548152906001019060200180831161115057829003601f168201915b5050505050815260200190600101906110c5565b505050508152602001600e8201805480602002602001604051908101604052809291908181526020016000905b8282101561126a578382906000526020600020018054600181600116156101000203166002900480601f0160208091040260200160405190810160405280929190818152602001828054600181600116156101000203166002900480156112565780601f1061122b57610100808354040283529160200191611256565b820191906000526020600020905b81548152906001019060200180831161123957829003601f168201915b5050505050815260200190600101906111ae565b505050508152602001600f8201805480602002602001604051908101604052809291908181526020016000905b82821015611353578382906000526020600020018054600181600116156101000203166002900480601f01602080910402602001604051908101604052809291908181526020018280546001816001161561010002031660029004801561133f5780601f106113145761010080835404028352916020019161133f565b820191906000526020600020905b81548152906001019060200180831161132257829003601f168201915b505050505081526020019060010190611297565b50505050815260200160108201805480602002602001604051908101604052809291908181526020016000905b8282101561143c578382906000526020600020018054600181600116156101000203166002900480601f0160208091040260200160405190810160405280929190818152602001828054600181600116156101000203166002900480156114285780601f106113fd57610100808354040283529160200191611428565b820191906000526020600020905b81548152906001019060200180831161140b57829003601f168201915b505050505081526020019060010190611380565b50505050815260200160118201805480602002602001604051908101604052809291908181526020016000905b82821015611525578382906000526020600020018054600181600116156101000203166002900480601f0160208091040260200160405190810160405280929190818152602001828054600181600116156101000203166002900480156115115780601f106114e657610100808354040283529160200191611511565b820191906000526020600020905b8154815290600101906020018083116114f457829003601f168201915b505050505081526020019060010190611469565b50505050815250509050919050565b60008181548110151561154357fe5b90600052602060002090601202016000915090508060000160009054906101000a900473ffffffffffffffffffffffffffffffffffffffff1690806001018054600181600116156101000203166002900480601f0160208091040260200160405190810160405280929190818152602001828054600181600116156101000203166002900480156116155780601f106115ea57610100808354040283529160200191611615565b820191906000526020600020905b8154815290600101906020018083116115f857829003601f168201915b505050505090806002018054600181600116156101000203166002900480601f0160208091040260200160405190810160405280929190818152602001828054600181600116156101000203166002900480156116b35780601f10611688576101008083540402835291602001916116b3565b820191906000526020600020905b81548152906001019060200180831161169657829003601f168201915b505050505090806003018054600181600116156101000203166002900480601f0160208091040260200160405190810160405280929190818152602001828054600181600116156101000203166002900480156117515780601f1061172657610100808354040283529160200191611751565b820191906000526020600020905b81548152906001019060200180831161173457829003601f168201915b505050505090806004018054600181600116156101000203166002900480601f0160208091040260200160405190810160405280929190818152602001828054600181600116156101000203166002900480156117ef5780601f106117c4576101008083540402835291602001916117ef565b820191906000526020600020905b8154815290600101906020018083116117d257829003601f168201915b505050505090806005018054600181600116156101000203166002900480601f01602080910402602001604051908101604052809291908181526020018280546001816001161561010002031660029004801561188d5780601f106118625761010080835404028352916020019161188d565b820191906000526020600020905b81548152906001019060200180831161187057829003601f168201915b505050505090806006018054600181600116156101000203166002900480601f01602080910402602001604051908101604052809291908181526020018280546001816001161561010002031660029004801561192b5780601f106119005761010080835404028352916020019161192b565b820191906000526020600020905b81548152906001019060200180831161190e57829003601f168201915b505050505090806007018054600181600116156101000203166002900480601f0160208091040260200160405190810160405280929190818152602001828054600181600116156101000203166002900480156119c95780601f1061199e576101008083540402835291602001916119c9565b820191906000526020600020905b8154815290600101906020018083116119ac57829003601f168201915b505050505090806008018054600181600116156101000203166002900480601f016020809104026020016040519081016040528092919081815260200182805460018160011615610100020316600290048015611a675780601f10611a3c57610100808354040283529160200191611a67565b820191906000526020600020905b815481529060010190602001808311611a4a57829003601f168201915b5050505050905089565b6060600260003373ffffffffffffffffffffffffffffffffffffffff1673ffffffffffffffffffffffffffffffffffffffff168152602001908152602001600020805480602002602001604051908101604052809291908181526020018280548015611afc57602002820191906000526020600020905b815481526020019060010190808311611ae8575b5050505050905090565b828054600181600116156101000203166002900490600052602060002090601f016020900481019282601f10611b4757805160ff1916838001178555611b75565b82800160010185558215611b75579182015b82811115611b74578251825591602001919060010190611b59565b5b509050611b829190611d08565b5090565b828054828255906000526020600020908101928215611bd5579160200282015b82811115611bd4578251829080519060200190611bc4929190611b06565b5091602001919060010190611ba6565b5b509050611be29190611d2d565b5090565b828054600181600116156101000203166002900490600052602060002090601f016020900481019282601f10611c2757805160ff1916838001178555611c55565b82800160010185558215611c55579182015b82811115611c54578251825591602001919060010190611c39565b5b509050611c629190611d08565b5090565b61024060405190810160405280600073ffffffffffffffffffffffffffffffffffffffff16815260200160608152602001606081526020016060815260200160608152602001606081526020016060815260200160608152602001606081526020016060815260200160608152602001606081526020016060815260200160608152602001606081526020016060815260200160608152602001606081525090565b611d2a91905b80821115611d26576000816000905550600101611d0e565b5090565b90565b611d5691905b80821115611d525760008181611d499190611d59565b50600101611d33565b5090565b90565b50805460018160011615610100020316600290046000825580601f10611d7f5750611d9e565b601f016020900490600052602060002090810190611d9d9190611d08565b5b50565b6000611dad82356129d3565b905092915050565b600082601f8301121515611dc857600080fd5b8135611ddb611dd6826128c9565b61289c565b9150818183526020840193506020810190508360005b83811015611e215781358601611e078882611e2b565b845260208401935060208301925050600181019050611df1565b5050505092915050565b600082601f8301121515611e3e57600080fd5b8135611e51611e4c826128f1565b61289c565b91508082526020830160208301858383011115611e6d57600080fd5b611e788382846129fd565b50505092915050565b600082601f8301121515611e9457600080fd5b8135611ea7611ea28261291d565b61289c565b91508082526020830160208301858383011115611ec357600080fd5b611ece8382846129fd565b50505092915050565b60006102408284031215611eea57600080fd5b611ef561024061289c565b90506000611f0584828501611da1565b600083015250602082013567ffffffffffffffff811115611f2557600080fd5b611f3184828501611e2b565b602083015250604082013567ffffffffffffffff811115611f5157600080fd5b611f5d84828501611e2b565b604083015250606082013567ffffffffffffffff811115611f7d57600080fd5b611f8984828501611e2b565b606083015250608082013567ffffffffffffffff811115611fa957600080fd5b611fb584828501611e2b565b60808301525060a082013567ffffffffffffffff811115611fd557600080fd5b611fe184828501611e2b565b60a08301525060c082013567ffffffffffffffff81111561200157600080fd5b61200d84828501611e2b565b60c08301525060e082013567ffffffffffffffff81111561202d57600080fd5b61203984828501611e2b565b60e08301525061010082013567ffffffffffffffff81111561205a57600080fd5b61206684828501611e2b565b6101008301525061012082013567ffffffffffffffff81111561208857600080fd5b61209484828501611db5565b6101208301525061014082013567ffffffffffffffff8111156120b657600080fd5b6120c284828501611db5565b6101408301525061016082013567ffffffffffffffff8111156120e457600080fd5b6120f084828501611db5565b6101608301525061018082013567ffffffffffffffff81111561211257600080fd5b61211e84828501611db5565b610180830152506101a082013567ffffffffffffffff81111561214057600080fd5b61214c84828501611db5565b6101a0830152506101c082013567ffffffffffffffff81111561216e57600080fd5b61217a84828501611db5565b6101c0830152506101e082013567ffffffffffffffff81111561219c57600080fd5b6121a884828501611db5565b6101e08301525061020082013567ffffffffffffffff8111156121ca57600080fd5b6121d684828501611db5565b6102008301525061022082013567ffffffffffffffff8111156121f857600080fd5b61220484828501611db5565b6102208301525092915050565b600061221d82356129f3565b905092915050565b6000806040838503121561223857600080fd5b600061224685828601611da1565b925050602061225785828601612211565b9150509250929050565b60006020828403121561227357600080fd5b600082013567ffffffffffffffff81111561228d57600080fd5b61229984828501611ed7565b91505092915050565b6000602082840312156122b457600080fd5b60006122c284828501612211565b91505092915050565b600080604083850312156122de57600080fd5b60006122ec85828601612211565b925050602083013567ffffffffffffffff81111561230957600080fd5b61231585828601611e81565b9150509250929050565b612328816129a9565b82525050565b600061233982612963565b8084526020840193508360208202850161235285612949565b60005b8481101561238b57838303885261236d83835161242d565b92506123788261298f565b9150602088019750600181019050612355565b508196508694505050505092915050565b60006123a78261296e565b8084526020840193506123b983612956565b60005b828110156123eb576123cf8683516126b2565b6123d88261299c565b91506020860195506001810190506123bc565b50849250505092915050565b600061240282612984565b808452612416816020860160208601612a0c565b61241f81612a3f565b602085010191505092915050565b600061243882612979565b80845261244c816020860160208601612a0c565b61245581612a3f565b602085010191505092915050565b6000602282527f53616e6374696f6e20616e64206f776e657220646f6573206e6f74206d61746360208301527f682e0000000000000000000000000000000000000000000000000000000000006040830152606082019050919050565b6000610240830160008301516124d9600086018261231f565b50602083015184820360208601526124f1828261242d565b9150506040830151848203604086015261250b828261242d565b91505060608301518482036060860152612525828261242d565b9150506080830151848203608086015261253f828261242d565b91505060a083015184820360a0860152612559828261242d565b91505060c083015184820360c0860152612573828261242d565b91505060e083015184820360e086015261258d828261242d565b9150506101008301518482036101008601526125a9828261242d565b9150506101208301518482036101208601526125c5828261232e565b9150506101408301518482036101408601526125e1828261232e565b9150506101608301518482036101608601526125fd828261232e565b915050610180830151848203610180860152612619828261232e565b9150506101a08301518482036101a0860152612635828261232e565b9150506101c08301518482036101c0860152612651828261232e565b9150506101e08301518482036101e086015261266d828261232e565b915050610200830151848203610200860152612689828261232e565b9150506102208301518482036102208601526126a5828261232e565b9150508091505092915050565b6126bb816129c9565b82525050565b60006020820190506126d6600083018461231f565b92915050565b6000610120820190506126f2600083018c61231f565b8181036020830152612704818b61242d565b90508181036040830152612718818a61242d565b9050818103606083015261272c818961242d565b90508181036080830152612740818861242d565b905081810360a0830152612754818761242d565b905081810360c0830152612768818661242d565b905081810360e083015261277c818561242d565b9050818103610100830152612791818461242d565b90509a9950505050505050505050565b600060208201905081810360008301526127bb818461239c565b905092915050565b600060208201905081810360008301526127dc81612463565b9050919050565b600060208201905081810360008301526127fd81846124c0565b905092915050565b600060208201905061281a60008301846126b2565b92915050565b600060608201905061283560008301866126b2565b612842602083018561231f565b818103604083015261285481846123f7565b9050949350505050565b600060608201905061287360008301866126b2565b612880602083018561231f565b818103604083015261289281846124c0565b9050949350505050565b6000604051905081810181811067ffffffffffffffff821117156128bf57600080fd5b8060405250919050565b600067ffffffffffffffff8211156128e057600080fd5b602082029050602081019050919050565b600067ffffffffffffffff82111561290857600080fd5b601f19601f8301169050602081019050919050565b600067ffffffffffffffff82111561293457600080fd5b601f19601f8301169050602081019050919050565b6000602082019050919050565b6000602082019050919050565b600081519050919050565b600081519050919050565b600081519050919050565b600081519050919050565b6000602082019050919050565b6000602082019050919050565b600073ffffffffffffffffffffffffffffffffffffffff82169050919050565b6000819050919050565b600073ffffffffffffffffffffffffffffffffffffffff82169050919050565b6000819050919050565b82818337600083830152505050565b60005b83811015612a2a578082015181840152602081019050612a0f565b83811115612a39576000848401525b50505050565b6000601f19601f83011690509190505600a265627a7a72305820b91f6d824c46c27c3a326b5d1278766feb8b7f61078441429537689be0a2332d6c6578706572696d656e74616cf50037",
  "source": "pragma solidity ^0.4.0;\npragma experimental ABIEncoderV2;\n\ncontract SanctionRegistry {\n  event NewSanction(uint id, address owner, Sanction sanction); \n  event UpdatedSanction(uint id, address owner, string referenceNum);\n\n  struct Sanction {\n    address owner;\n    string referenceNum;\n    string dataId;\n    string versionNum;\n    string unListType;\n    string listType;\n    string listedOn;\n    string otherInformation;\n    string nationality;\n    string[] name;\n    string[] designation;\n    string[] passportNum;\n    string[] nationalIdentificationNo;\n    string[] dob;\n    string[] pob;\n    string[] aDdress;\n    string[] goodQualityAka;\n    string[] lowQualityAka;\n  }\n\n  Sanction[] public sanctions;\n\n  mapping (uint => address) public sanctionToOwner;\n  mapping (address => uint[]) public ownerToSanction;\n\n  function createSanction(Sanction sanction) public {\n    uint id = sanctions.push(sanction) - 1;\n\n    sanctionToOwner[id] = msg.sender;\n    ownerToSanction[msg.sender].push(id);\n\n    emit NewSanction(id, msg.sender, sanction);\n  }\n\n  function getSanctionIds() public view returns (uint[]) {\n    return ownerToSanction[msg.sender];\n  }\n\n  function getSanction(uint id) public view returns (Sanction sanction) {\n    require(sanctionToOwner[id] == msg.sender, \"Sanction and owner does not match.\");\n    return (sanctions[id]);\n  }\n\n  function updateReferenceNum(uint id, string _referenceNum) public {\n    require(msg.sender == sanctions[id].owner);\n\n    sanctions[id].referenceNum = _referenceNum;\n    emit UpdatedSanction(id, msg.sender, _referenceNum);\n  }\n\n}\n",
  "sourcePath": "/home/bitnami/thegraph/my-subgraph/my-subgraph/contracts/Sanction.sol",
  "compiler": {
    "name": "solc",
    "version": "0.4.25+commit.59dbf8f1.Emscripten.clang"
  },
  "schemaVersion": "3.1.0",
  "updatedAt": "2020-09-22T12:41:12.769Z",
  "networkType": "ethereum",
  "devdoc": {
    "methods": {}
  },
  "userdoc": {
    "methods": {}
  }
}